{
  "contractName": "ItemManager",
  "abi": [
    {
      "anonymous": false,
      "inputs": [
        {
          "indexed": false,
          "internalType": "uint256",
          "name": "_index",
          "type": "uint256"
        },
        {
          "indexed": false,
          "internalType": "uint256",
          "name": "_step",
          "type": "uint256"
        },
        {
          "indexed": false,
          "internalType": "address",
          "name": "_address",
          "type": "address"
        }
      ],
      "name": "SupplyChainStep",
      "type": "event"
    },
    {
      "inputs": [],
      "name": "_owner",
      "outputs": [
        {
          "internalType": "address",
          "name": "",
          "type": "address"
        }
      ],
      "stateMutability": "view",
      "type": "function",
      "constant": true
    },
    {
      "inputs": [],
      "name": "index",
      "outputs": [
        {
          "internalType": "uint256",
          "name": "",
          "type": "uint256"
        }
      ],
      "stateMutability": "view",
      "type": "function",
      "constant": true
    },
    {
      "inputs": [],
      "name": "isOwner",
      "outputs": [
        {
          "internalType": "bool",
          "name": "",
          "type": "bool"
        }
      ],
      "stateMutability": "view",
      "type": "function",
      "constant": true
    },
    {
      "inputs": [
        {
          "internalType": "uint256",
          "name": "",
          "type": "uint256"
        }
      ],
      "name": "items",
      "outputs": [
        {
          "internalType": "contract Item",
          "name": "_item",
          "type": "address"
        },
        {
          "internalType": "enum ItemManager.SupplyChainSteps",
          "name": "_step",
          "type": "uint8"
        },
        {
          "internalType": "string",
          "name": "_identifier",
          "type": "string"
        },
        {
          "internalType": "uint256",
          "name": "_priceWei",
          "type": "uint256"
        }
      ],
      "stateMutability": "view",
      "type": "function",
      "constant": true
    },
    {
      "inputs": [
        {
          "internalType": "string",
          "name": "_identifier",
          "type": "string"
        },
        {
          "internalType": "uint256",
          "name": "_priceWei",
          "type": "uint256"
        }
      ],
      "name": "createItem",
      "outputs": [],
      "stateMutability": "nonpayable",
      "type": "function"
    },
    {
      "inputs": [
        {
          "internalType": "uint256",
          "name": "_index",
          "type": "uint256"
        }
      ],
      "name": "triggerPayment",
      "outputs": [],
      "stateMutability": "payable",
      "type": "function",
      "payable": true
    },
    {
      "inputs": [
        {
          "internalType": "uint256",
          "name": "_index",
          "type": "uint256"
        }
      ],
      "name": "triggerDelivery",
      "outputs": [],
      "stateMutability": "nonpayable",
      "type": "function"
    }
  ],
  "bytecode": "0x6080604052336000806101000a81548173ffffffffffffffffffffffffffffffffffffffff021916908373ffffffffffffffffffffffffffffffffffffffff160217905550611395806100536000396000f3fe6080604052600436106100705760003560e01c80638f32d59b1161004e5780638f32d59b146101a0578063b2bdfa7b146101cf578063bfb231d214610226578063cd31831e1461032957610070565b80632986c0e514610075578063800fb83f146100a05780638c551742146100ce575b600080fd5b34801561008157600080fd5b5061008a610364565b6040518082815260200191505060405180910390f35b6100cc600480360360208110156100b657600080fd5b810190808035906020019092919050505061036a565b005b3480156100da57600080fd5b5061019e600480360360408110156100f157600080fd5b810190808035906020019064010000000081111561010e57600080fd5b82018360208201111561012057600080fd5b8035906020019184600183028401116401000000008311171561014257600080fd5b91908080601f016020809104026020016040519081016040528093929190818152602001838380828437600081840152601f19601f820116905080830192505050505050509192919290803590602001909291905050506106aa565b005b3480156101ac57600080fd5b506101b5610969565b604051808215151515815260200191505060405180910390f35b3480156101db57600080fd5b506101e46109c0565b604051808273ffffffffffffffffffffffffffffffffffffffff1673ffffffffffffffffffffffffffffffffffffffff16815260200191505060405180910390f35b34801561023257600080fd5b5061025f6004803603602081101561024957600080fd5b81019080803590602001909291905050506109e5565b604051808573ffffffffffffffffffffffffffffffffffffffff1673ffffffffffffffffffffffffffffffffffffffff1681526020018460028111156102a157fe5b60ff16815260200180602001838152602001828103825284818151815260200191508051906020019080838360005b838110156102eb5780820151818401526020810190506102d0565b50505050905090810190601f1680156103185780820380516001836020036101000a031916815260200191505b509550505050505060405180910390f35b34801561033557600080fd5b506103626004803603602081101561034c57600080fd5b8101908080359060200190929190505050610ada565b005b60025481565b60006001600083815260200190815260200160002060000160009054906101000a900473ffffffffffffffffffffffffffffffffffffffff1690503373ffffffffffffffffffffffffffffffffffffffff168173ffffffffffffffffffffffffffffffffffffffff1614610429576040517f08c379a000000000000000000000000000000000000000000000000000000000815260040180806020018281038252602b815260200180611335602b913960400191505060405180910390fd5b8073ffffffffffffffffffffffffffffffffffffffff1663b7ec20866040518163ffffffff1660e01b815260040160206040518083038186803b15801561046f57600080fd5b505afa158015610483573d6000803e3d6000fd5b505050506040513d602081101561049957600080fd5b810190808051906020019092919050505034101561051f576040517f08c379a00000000000000000000000000000000000000000000000000000000081526004018080602001828103825260168152602001807f4e6f7420656e6f756768206d6f6e65792073656e742e0000000000000000000081525060200191505060405180910390fd5b6000600281111561052c57fe5b6001600084815260200190815260200160002060000160149054906101000a900460ff16600281111561055b57fe5b146105ce576040517f08c379a000000000000000000000000000000000000000000000000000000000815260040180806020018281038252601b8152602001807f4974656d2068617320616c7265616479206265656e20706169642e000000000081525060200191505060405180910390fd5b600180600084815260200190815260200160002060000160146101000a81548160ff0219169083600281111561060057fe5b02179055507fa4035636e99f06b7651a604c1019fa4e8779fe68ef27eeb74dff2de348f6199b826001600085815260200190815260200160002060000160149054906101000a900460ff16600281111561065657fe5b83604051808481526020018381526020018273ffffffffffffffffffffffffffffffffffffffff1673ffffffffffffffffffffffffffffffffffffffff168152602001935050505060405180910390a15050565b6106b2610969565b610724576040517f08c379a00000000000000000000000000000000000000000000000000000000081526004018080602001828103825260208152602001807f4f776e61626c653a2063616c6c6572206973206e6f7420746865206f776e657281525060200191505060405180910390fd5b6000308260025460405161073790610dc4565b808473ffffffffffffffffffffffffffffffffffffffff1673ffffffffffffffffffffffffffffffffffffffff1681526020018381526020018281526020019350505050604051809103906000f080158015610797573d6000803e3d6000fd5b5090508060016000600254815260200190815260200160002060000160006101000a81548173ffffffffffffffffffffffffffffffffffffffff021916908373ffffffffffffffffffffffffffffffffffffffff160217905550600060016000600254815260200190815260200160002060000160146101000a81548160ff0219169083600281111561082657fe5b0217905550826001600060025481526020019081526020016000206001019080519060200190610857929190610dd1565b5081600160006002548152602001908152602001600020600201819055507fa4035636e99f06b7651a604c1019fa4e8779fe68ef27eeb74dff2de348f6199b60025460016000600254815260200190815260200160002060000160149054906101000a900460ff1660028111156108ca57fe5b60016000600254815260200190815260200160002060000160009054906101000a900473ffffffffffffffffffffffffffffffffffffffff16604051808481526020018381526020018273ffffffffffffffffffffffffffffffffffffffff1673ffffffffffffffffffffffffffffffffffffffff168152602001935050505060405180910390a1600260008154809291906001019190505550505050565b60008060009054906101000a900473ffffffffffffffffffffffffffffffffffffffff1673ffffffffffffffffffffffffffffffffffffffff163373ffffffffffffffffffffffffffffffffffffffff1614905090565b6000809054906101000a900473ffffffffffffffffffffffffffffffffffffffff1681565b60016020528060005260406000206000915090508060000160009054906101000a900473ffffffffffffffffffffffffffffffffffffffff16908060000160149054906101000a900460ff1690806001018054600181600116156101000203166002900480601f016020809104026020016040519081016040528092919081815260200182805460018160011615610100020316600290048015610aca5780601f10610a9f57610100808354040283529160200191610aca565b820191906000526020600020905b815481529060010190602001808311610aad57829003601f168201915b5050505050908060020154905084565b610ae2610969565b610b54576040517f08c379a00000000000000000000000000000000000000000000000000000000081526004018080602001828103825260208152602001807f4f776e61626c653a2063616c6c6572206973206e6f7420746865206f776e657281525060200191505060405180910390fd5b600280811115610b6057fe5b6001600083815260200190815260200160002060000160149054906101000a900460ff166002811115610b8f57fe5b1415610c03576040517f08c379a000000000000000000000000000000000000000000000000000000000815260040180806020018281038252601f8152602001807f4974656d2068617320616c7265616479206265656e2064656c6976657265640081525060200191505060405180910390fd5b60016002811115610c1057fe5b6001600083815260200190815260200160002060000160149054906101000a900460ff166002811115610c3f57fe5b14610cb2576040517f08c379a00000000000000000000000000000000000000000000000000000000081526004018080602001828103825260168152602001807f4974656d20686173206e6f74206265656e20706169640000000000000000000081525060200191505060405180910390fd5b60026001600083815260200190815260200160002060000160146101000a81548160ff02191690836002811115610ce557fe5b02179055507fa4035636e99f06b7651a604c1019fa4e8779fe68ef27eeb74dff2de348f6199b816001600084815260200190815260200160002060000160149054906101000a900460ff166002811115610d3b57fe5b6001600085815260200190815260200160002060000160009054906101000a900473ffffffffffffffffffffffffffffffffffffffff16604051808481526020018381526020018273ffffffffffffffffffffffffffffffffffffffff1673ffffffffffffffffffffffffffffffffffffffff168152602001935050505060405180910390a150565b6104be80610e7783390190565b828054600181600116156101000203166002900490600052602060002090601f016020900481019282601f10610e1257805160ff1916838001178555610e40565b82800160010185558215610e40579182015b82811115610e3f578251825591602001919060010190610e24565b5b509050610e4d9190610e51565b5090565b610e7391905b80821115610e6f576000816000905550600101610e57565b5090565b9056fe608060405234801561001057600080fd5b506040516104be3803806104be8339818101604052606081101561003357600080fd5b8101908080519060200190929190805190602001909291908051906020019092919050505082600360006101000a81548173ffffffffffffffffffffffffffffffffffffffff021916908373ffffffffffffffffffffffffffffffffffffffff1602179055508060008190555081600181905550505050610405806100b96000396000f3fe6080604052600436106100385760003560e01c80632986c0e5146102f257806383d12eef1461031d578063b7ec208614610348576102e3565b366102e357600154341015610098576040517f08c379a00000000000000000000000000000000000000000000000000000000081526004018080602001828103825260218152602001806103866021913960400191505060405180910390fd5b600060025414610110576040517f08c379a00000000000000000000000000000000000000000000000000000000081526004018080602001828103825260158152602001807f4974656d20697320616c7265616479207061696421000000000000000000000081525060200191505060405180910390fd5b346002600082825401925050819055506000600360009054906101000a900473ffffffffffffffffffffffffffffffffffffffff1673ffffffffffffffffffffffffffffffffffffffff1634600054604051602401808281526020019150506040516020818303038152906040527f800fb83f000000000000000000000000000000000000000000000000000000007bffffffffffffffffffffffffffffffffffffffffffffffffffffffff19166020820180517bffffffffffffffffffffffffffffffffffffffffffffffffffffffff83818316178352505050506040518082805190602001908083835b6020831061021f57805182526020820191506020810190506020830392506101fc565b6001836020036101000a03801982511681845116808217855250505050505090500191505060006040518083038185875af1925050503d8060008114610281576040519150601f19603f3d011682016040523d82523d6000602084013e610286565b606091505b50509050806102e0576040517f08c379a00000000000000000000000000000000000000000000000000000000081526004018080602001828103825260298152602001806103a76029913960400191505060405180910390fd5b50005b3480156102ef57600080fd5b50005b3480156102fe57600080fd5b50610307610373565b6040518082815260200191505060405180910390f35b34801561032957600080fd5b50610332610379565b6040518082815260200191505060405180910390f35b34801561035457600080fd5b5061035d61037f565b6040518082815260200191505060405180910390f35b60005481565b60025481565b6001548156fe576520646f6e277420737570706f7274207061727469616c207061796d656e74735472616e73616374696f6e207761736e2774207375636365737366756c2c2063616e63656c6c696e67a26469706673582212202156beefadea0b51d938f512aef8053d574d7683da84bc2df712cc3b46c8f1e864736f6c634300060400334f6e6c79206974656d732061726520616c6c6f77656420746f20757064617465207468656d73656c766573a2646970667358221220da604ef11f9086dfe8946a67877802c8834d191a3f88419bfb097b3ec10304be64736f6c63430006040033",
  "source": "pragma solidity ^0.6.0;\n\nimport \"./Item.sol\";\nimport \"./Ownable.sol\";\n\ncontract ItemManager is Ownable {\n    enum SupplyChainSteps{ Created, Paid, Delivered } \n    \n    struct S_Item {\n        Item _item;\n        ItemManager.SupplyChainSteps _step;\n        string _identifier;\n        uint _priceWei;\n    }\n    \n    mapping(uint => S_Item) public items;\n    \n    uint public index;\n    \n    event SupplyChainStep(uint _index, uint _step, address _address); \n    \n    function createItem(string memory _identifier, uint _priceWei) public onlyOwner {\n        Item item = new Item(this, _priceWei, index);\n        items[index]._item = item;\n        items[index]._step = SupplyChainSteps.Created;\n        items[index]._identifier = _identifier;\n        items[index]._priceWei = _priceWei;\n        emit SupplyChainStep(index, uint(items[index]._step), address(items[index]._item));\n        index++;\n    }\n\n    // function SeeAllItems() public view returns(uint[] memory) {\n    //     uint[] memory prices = new uint[](index);\n    //     string[] memory identifiers = new string[](index);\n    //     for(uint i = 0; i < index; i++) {\n    //         prices[i] = items[i]._item.priceWei;\n    //         identifiers[i] = items[i]._identifier;\n    //     }\n    //     return prices;\n    // }\n\n    // function getAll() public view returns (uint[] memory){\n    //     uint[] memory ret = new uint[](index);\n    //     for (uint i = 0; i < index; i++) {\n    //         ret[i] = items[i]._item.priceWei;\n    //     }\n    //     return ret;\n    // }\n    \n    function triggerPayment(uint _index) public payable {\n        Item item = items[_index]._item;\n        require(address(item) == msg.sender, \"Only items are allowed to update themselves\");\n        require(msg.value >= item.priceWei(), \"Not enough money sent.\");\n        require(items[_index]._step == SupplyChainSteps.Created, \"Item has already been paid.\");\n        items[_index]._step = SupplyChainSteps.Paid;\n        emit SupplyChainStep(_index, uint(items[_index]._step), address(item));\n    }\n    \n    function triggerDelivery(uint _index) public onlyOwner {\n        require(items[_index]._step != SupplyChainSteps.Delivered, \"Item has already been delivered\");\n        require(items[_index]._step == SupplyChainSteps.Paid, \"Item has not been paid\");\n        items[_index]._step = SupplyChainSteps.Delivered;\n        emit SupplyChainStep(_index, uint(items[_index]._step), address(items[_index]._item));\n    }\n}",
  "sourcePath": "/Users/soouafir/Documents/Ethereum-course/section6-eventtrigger/contracts/ItemManager.sol",
  "compiler": {
    "name": "solc",
    "version": "0.6.4+commit.1dca32f3.Emscripten.clang"
  },
  "schemaVersion": "3.3.3",
  "updatedAt": "2021-02-16T01:28:24.881Z",
  "networkType": "ethereum",
  "devdoc": {
    "methods": {}
  },
  "userdoc": {
    "methods": {}
  }
}